:1070000033C000004CC000004AC0000048C000006F
:1070100046C0000044C0000042C0000040C0000064
:107020003EC000003CC000003AC0000038C0000074
:1070300036C0000034C0000032C0000030C0000084
:107040002EC000002CC000002AC0000028C0000094
:1070500026C0000024C0000022C0000020C00000A4
:107060001EC000001CC0000011241FBECFEFD8E0DE
:10707000DEBFCDBF11E0A0E0B1E0E8E5FFE702C070
:1070800005900D92AC34B107D9F723E0ACE4B1E040
:1070900001C01D92A937B207E1F714D05BC7B0CF8A
:1070A000CF93DF93EC01299A41E0BC018CE2F1D04F
:1070B0008881837029F071D281E0DF91CF910895AA
:1070C0008FEFFBCFCF93DF93CDB7DEB728970FB607
:1070D000F894DEBF0FBECDBF8E010F5F1F4F88E05B
:1070E000F80111928A95E9F729D485E090E043D11F
:1070F00040E850E06FEF70E083E591E06BD4C801A9
:10710000CFDF8130E1F7C0905001D09051018091E4
:10711000690390916A030197E1F441E06CE471E046
:1071200085E6B7D0E0904E01F0904F01E0914C0120
:10713000E1500E2E000CFF0B21E030E040E050E06B
:10714000E7FF69C0F0924F01E0924E0181E0809329
:107150004D018091690390916A03029781F68091B5
:107160004D01813061F6D694DC2CCC24D794C794A1
:10717000F12CE12C809152018038C9F420E830E0F4
:1071800043E551E0C701B60102D340E850E06FEF9C
:1071900070E083E591E01ED48091500190915101FF
:1071A0000196909351018093500110925201809169
:1071B0000001909101014C01B12CA12C23E0880C1D
:1071C000991CAA1CBB1C2A95D1F740914E015091E5
:1071D0004F0170E060E084169506A606B706A8F198
:1071E00041E06CE471E085E654D090914C01ABE64F
:1071F000B3E0E0915201F0E0ED5AFE4F80E09813C9
:1072000020C020E830E043E551E0C701B601BFD21D
:107210000C94000074CFDF01A959BC4F14968C91D7
:1072200090E0829FB001839F700D929F700D11249A
:10723000E60EF71EAAE0B0E0B4D39B01AC01319793
:107240007FCF2D9121938F5FDACF20915201ABE652
:10725000B3E0E22FF0E0ED5AFE4F3D91319333E081
:10726000A337B307D1F7285F20935201019690937B
:1072700001018093000143CF85E38A95F1F7000077
:107280002A9885E38A95F1F7000080EC7ED32A9A4C
:107290000895FF920F931F93CF93DF93C82FF62E7D
:1072A000172F042F85E38A95F1F700002A9885E3CC
:1072B0008A95F1F7000083E068D38C2F66D3CF2D39
:1072C000D12F0C0F1D2F111DC017D10739F42A9A89
:1072D000DF91CF911F910F91FF90089580E05BD3D4
:1072E0008993F2CFEF92FF920F931F93CF93DF9387
:1072F000C82F162FE72E042F85E38A95F1F700009B
:107300002A9885E38A95F1F7000082E03ED38C2F1E
:107310003CD3F12EC12FDE2D0150110B9C2F9F1954
:107320008991901711064CF030D32A9ADF91CF91B2
:107330001F910F91FF90EF90089527D3EFCF1F93E8
:10734000CF93DF93182FD62FC42F85E38A95F1F7BB
:1073500000002A9885E38A95F1F7000085E015D3AF
:10736000812F13D38D2F11D38C2F0FD32A9ADF9116
:10737000CF911F910895CF93DF93EC0185ED91E0BC
:1073800090936603809365039093D4018093D30117
:1073900073DF85E38A95F1F7000040E063E08FE05A
:1073A000CEDF41E065E573E08FE073DF8091550348
:1073B0001F928F9382E091E09F938F9312D30F904F
:1073C0000F900F900F90C230D10509F4D5C058F43A
:1073D000209709F4C1C0219709F4C6C085E08093C5
:1073E000550388EFD5C0C530D10509F4CDC0C630EE
:1073F000D10511F0239791F785E08093550388EF2D
:107400008093560381E08093570383E6809358036B
:107410001092590310925A0346E065E573E088E242
:1074200061DF81E180935503109256031092570358
:10743000109258031092590310925A0310925B0352
:1074400010925C0384E880935D0310925E031092B7
:107450005F03109260034CE065E573E080E042DF7B
:1074600080EB8093550310925603109257031092AD
:1074700058031092590310925A0310925B03109212
:107480005C0310925D0310925E0310925F031092F2
:1074900060034CE065E573E080E124DF8CEF8093CE
:1074A000550310925603109257031092580380937D
:1074B000590310925A0310925B0310925C0348E048
:1074C00065E573E080E20EDF41E065E573E080E6AC
:1074D000E0DE8091550380668093550341E065E5C9
:1074E00073E080E6FFDE41E065E573E080E6D1DE33
:1074F000809155031F928F9381E191E09F938F9329
:1075000070D241E065E573E080E7C3DE809155030A
:1075100080668093550341E065E573E080E7E2DE35
:1075200041E065E573E080E7B4DE809155031F928A
:107530008F9381E291E09F938F9353D28DB79EB743
:1075400008960FB6F8949EBF0FBE8DBF40E060EE68
:107550008FE0DF91CF91F3CE85E08093550388EFE4
:107560008093560389E04FCF85E08093550388EFE1
:107570008093560384E047CF85E08093550388EFDE
:107580008093560383E03FCF82E08093550380EDE4
:10759000809356031092570338CFCF93DF931F92F7
:1075A000CDB7DEB741E0BE016F5F7F4F8CE271DE89
:1075B000898185FF30C041E065E573E08DE269DED9
:1075C00042E066E573E08CE164DE40E060915503E3
:1075D0008DE2B5DE8FEF9FEF909368038093670392
:1075E00010926A0310926903898180936B038091E2
:1075F000550380936C038091560380936D038091B3
:10760000570380936E0340E060E28CE298DE0F90B7
:10761000DF91CF91089580FF4BC04EE065E573E0A8
:1076200080E637DE8091550383FD3BC081E090E02A
:10763000909368038093670380915B0380936B034F
:1076400080915C0380936C0380915D0380936D0354
:1076500080915E0380936E0380915F0380936F033C
:107660008091600380937003809161038093710324
:1076700080916203809372038091560328E0829F79
:10768000C00111242091570322952695277020933D
:107690005703822B90936A038093690340E061E073
:1076A000B4CF8CEF9FEF9093680380936703E4CF90
:1076B00081FF4BC04EE065E573E080E7EADD809135
:1076C000550383FD3BC081E090E090936803809375
:1076D000670380915B0380936B0380915C038093CD
:1076E0006C0380915D0380936D0380915E038093B2
:1076F0006E0380915F0380936F038091600380939A
:107700007003809161038093710380916203809381
:1077100072038091560328E0829FC00111242091BA
:10772000570322952695277020935703822B909319
:107730006A038093690340E062E067CF8CEF9FEFBC
:107740009093680380936703E4CF86FF11C040E005
:1077500060E48CE2F4DD8FEF9FEF909368038093F9
:10776000670382E090E090936A03809369034FCFB0
:107770002FEF3FEF309368032093670321E030E061
:1077800030936A032093690380936B0340CF2F9259
:107790003F925F926F927F928F929F92AF92BF9231
:1077A000CF92DF92EF92FF920F931F93CF93DF93CD
:1077B000F901EF77FF27A1E0EF2B09F4A0E0F90131
:1077C000EE0FEF2FEE1FFF0BF195EA0F6FB6F89457
:1077D000F999FECF2E2E312C810101501109F801AB
:1077E000F695FE2FEE27F795E7955901AE1ABF0AD9
:1077F00030E020E0B3E07B2E88248394C5E09C2E0B
:1078000022153305B8F081E180935700E8956FBEEB
:10781000DF91CF911F910F91FF90EF90DF90CF906C
:10782000BF90AF909F908F907F906F905F903F90B0
:107830002F90089575012017310719F090E8E92E6F
:10784000F12CFB0170925700E89507B600FCFDCFC4
:10785000EA01DA016B01C41AD50AAD01FD01EC1B86
:10786000FD0BEE15FF0560F0FB0190925700E895C7
:1078700007B600FCFDCF2F5F3F4F60587F4FC0CF52
:107880005C90F601EA0FFB1F11964C91119750E0A6
:10789000542F4427450D511D0A0180925700E89549
:1078A00011241296DACFCF93DF9300D0CDB7DEB795
:1078B000982F9F709A8382958F708983FE013196ED
:1078C0009E012D5F3F4F93E445E454E466E471E488
:1078D000A2E480818C3061F138F48A3061F08B3021
:1078E00029F1805D808308C08E3031F118F18F302E
:1078F000C1F7608301C070833196E217F30749F73F
:107900008A811F928F9389811F928F9381E391E0E7
:107910009F938F9366D00F900F900F900F900F90C2
:107920000F900F900F90DF91CF910895A083E4CF37
:107930009083E2CF5083E0CF4083DECF84B18F626B
:1079400084B924988DB58E7F8DBD8CB583658CBD33
:107950008CB51F928F9387E391E09F938F9341D0D3
:107960008CB590E0A0DF81E491E09F938F9339D0B4
:107970008DB590E098DF2A9A299A28980F900F9059
:107980000F900F900F900F9008958EBD0DB407FECD
:10799000FDCF8EB508958EBD0DB407FEFDCF8EB51B
:1079A000089509D0A59F900DB49F900DA49F800DC0
:1079B000911D11240895A29FB001B39FC001A39F00
:1079C000700D811D1124911DB29F700D811D112418
:1079D000911D0895DC0101C06D9341505040E0F7C6
:1079E0000895B0E0A0E0E6EFFCE38DC2AE014B5F8E
:1079F0005F4FFA0161917191AF0180917503909190
:107A0000760302D0E2E09BC2ABE0B0E0E9E0FDE348
:107A10006AC27C013B018A01FC01178216828381C4
:107A200081FFBAC1CE0101965C01F7019381F30198
:107A300093FD859193FF81913F01882309F449C10A
:107A4000853239F493FD859193FF81913F01853211
:107A500021F4B70190E0B9D1E8CF912C212C312C41
:107A6000FFE1F31538F08B3211F190F4803209F117
:107A7000833229F137FC3CC020ED280F2A3050F525
:107A800036FE20C08AE0989E200D1124922E06C05A
:107A90008D3291F0803371F7689430F8F30193FDE3
:107AA000859193FF81913F018111DACF21C06894C4
:107AB00031F8689432F8F2CF689433F8EFCF6894D5
:107AC00034F8ECCFEAE02E9E200D1124222E68948B
:107AD00035F8E4CF8E3229F436FCFBC0689436F8D2
:107AE000DDCF8C3619F4689437F8D8CF8836B1F2E8
:107AF000982F9F7D95549330D8F0833691F183373A
:107B0000B1F1833509F05EC02801F2E04F0E511C3F
:107B1000F801C080D180692D70E036FC02C06FEFA3
:107B20007FEFC6013CD14C01689437F882010AC04E
:107B30000C5F1F4FFFE3F98388248394912C650128
:107B4000E89437F833FE2AC0522C8114910459F579
:107B5000552009F46ACFB70180E290E036D15A94FB
:107B6000F7CFF801808189830E5F1F4FE5CF280191
:107B7000F2E04F0E511CF801C080D180692D70E0F9
:107B800036FC02C06FEF7FEFC60114D14C018201B9
:107B9000D7CFB70180E290E018D12A9428141904B5
:107BA00009F0B8F7D1CFF60137FC859137FE819106
:107BB0006F01B70190E009D151105A94F1E08F1A8A
:107BC0009108C3CF843619F0893609F073C0F801E3
:107BD00037FE67C060817181828193810C5F1F4F86
:107BE000F32DFF763F2E97FF09C0909580957095F5
:107BF00061957F4F8F4F9F4F689437F82AE030E0B0
:107C0000A50113D1C82ECA188C2C432C36FE0CC0EB
:107C1000E89440F8C91440F434FE05C032FC03C0B7
:107C2000F32DFE7E4F2E892C44FE90C0FE01EC0DFC
:107C3000F11D8081803309F082C0242D297E422EDF
:107C4000842D8870582E43FC8FC040FE89C09C2C28
:107C5000821418F42C0C922C981844FE8BC0B70197
:107C600080E390E0B2D042FE08C088E790E041FE99
:107C700002C088E590E0B701A8D0C91408F486C016
:107C8000CA94D12C9FEFC91AD90ACA0CDB1CF60181
:107C900082916F01B70190E098D0AC14BD04B9F7A0
:107CA00057CF60817181072E000C880B990B0E5FF6
:107CB0001F4F96CFD32CE894D4F82AE030E08537D4
:107CC00031F1232D297FD22E8F36F9F040F48835FB
:107CD000A1F0F701868197812B96E2E120C18037E0
:107CE00049F08837B1F7D4FE02C06894D2F820E199
:107CF00030E00DC06894D4F8F6CF34FE03C0822F74
:107D00008660D82E20E132E002C028E030E0F801A1
:107D1000D7FE0EC060817181828193810C5F1F4FFD
:107D2000A50183D0C82ECA183D2CE89437F86CCF33
:107D30006081718190E080E00E5F1F4FF1CF42FCC7
:107D400002C083947DCF839483947ACF842D8678E8
:107D500009F476CFF6CFB70180E290E036D0839475
:107D60008214C8F3512C79CF522C5818821408F47D
:107D700074CFF8CF842D867809F47FCF8BE241FE53
:107D800080E247FC8DE2B70190E076CFB70180E357
:107D900090E01BD09A9471CF8FEF9FEF9DCFFC01A5
:107DA0000590615070400110D8F7809590958E0F26
:107DB0009F1F0895FC016150704001900110D8F799
:107DC000809590958E0F9F1F08950F931F93CF93CB
:107DD000DF93182F092FEB018B8181FD09C01FEF65
:107DE0000FEF812F902FDF91CF911F910F91089569
:107DF00082FF14C02E813F818C819D812817390715
:107E00003CF4E881F981CF0101969983888310833E
:107E10008E819F8101969F838E83E3CFE885F985CC
:107E2000812F0995892BA1F3DACFFA01AA272830EF
:107E300051F1203181F1E8946F936E7F6E5F7F4F37
:107E40008F4F9F4FAF4FB1E03ED0B4E03CD0670FB3
:107E5000781F891F9A1FA11D680F791F8A1F911D06
:107E6000A11D6A0F711D811D911DA11D20D009F456
:107E700068943F912AE0269F11243019305D319398
:107E8000DEF6CF010895462F4770405D4193B3E081
:107E90000FD0C9F7F6CF462F4F70405D4A3318F028
:107EA000495D31FD4052419302D0A9F7EACFB4E0D9
:107EB000A6959795879577956795BA95C9F7009791
:107EC0006105710508959B01AC010A2E0694579532
:107ED000479537952795BA95C9F7620F731F841F89
:107EE000951FA01D08952F923F924F925F926F921F
:107EF0007F928F929F92AF92BF92CF92DF92EF923A
:107F0000FF920F931F93CF93DF93CDB7DEB7CA1BBA
:107F1000DB0B0FB6F894DEBF0FBECDBF09942A88E5
:107F2000398848885F846E847D848C849B84AA848D
:107F3000B984C884DF80EE80FD800C811B81AA811A
:107F4000B981CE0FD11D0FB6F894DEBF0FBECDBFE5
:087F5000ED010895F894FFCF44
:107F5800010043414E4354524C203D202564200AE1
:107F680000525842304354524C203D202564200A88
:107F780000525842314354524C203D202564200A77
:107F88000025632563200053504352203D2025647B
:0C7F9800000A2053504353203D200000FD
:040000030000700089
:00000001FF
