:1070000033C000004CC000004AC0000048C000006F
:1070100046C0000044C0000042C0000040C0000064
:107020003EC000003CC000003AC0000038C0000074
:1070300036C0000034C0000032C0000030C0000084
:107040002EC000002CC000002AC0000028C0000094
:1070500026C0000024C0000022C0000020C00000A4
:107060001EC000001CC0000011241FBECFEFD8E0DE
:10707000DEBFCDBF11E0A0E0B1E0EAE5FEE702C06F
:1070800005900D92A235B107D9F722E0A2E5B1E053
:1070900001C01D92A83FB207E1F73DD0DCC6B0CFDA
:1070A000D901E091E402F091E5027383628350E03C
:1070B000518340838C91848311968C9111978583A1
:1070C00012968C911297868313968C9113978783CF
:1070D00014968C911497808715968C9115978187BB
:1070E00016968C911697828717968C91838738D045
:1070F000F6C0CF93DF93EC01299A41E0BC018CE20A
:107100004DD08881837029F075D281E0DF91CF91D5
:1071100008958FEFFBCFCF93DF93CDB7DEB72897DE
:107120000FB6F894DEBF0FBECDBF88E0E0E0F1E01F
:10713000DE01119601900D928A95E1F7A0D385E0CA
:1071400090E046D1CE010196D4DF8130D9F72AEE06
:1071500032E048E063E271E080E090E0A1DFF2CF4E
:107160008091E4029091E5020C9622E0843D920722
:1071700029F09093E5028093E402089584E591E07C
:10718000F8CF85E38A95F1F700002A9885E38A9580
:10719000F1F7000080EC9AD32A9A0895FF920F939A
:1071A0001F93CF93DF93C82FF62E172F042F85E35D
:1071B0008A95F1F700002A9885E38A95F1F7000097
:1071C00083E084D38C2F82D3CF2DD12F0C0F1D2F92
:1071D000111DC017D10739F42A9ADF91CF911F9161
:1071E0000F91FF90089580E077D38993F2CFEF92CB
:1071F000FF920F931F93CF93DF93C82F162FE72E85
:10720000042F85E38A95F1F700002A9885E38A9593
:10721000F1F7000082E05AD38C2F58D3F12EC12F02
:10722000DE2D0150110B9C2F9F198991901711068B
:107230004CF04CD32A9ADF91CF911F910F91FF9080
:10724000EF90089543D3EFCF0F931F93CF93DF9326
:10725000C82F8B0187702A98806438D3C0FD0EC078
:10726000E801035F1F4F899131D3C017D107D9F7C8
:107270002A9ADF91CF911F910F910895E801085F3D
:107280001F4F899123D3C017D107D9F7F1CF882396
:1072900089F0813089F0823089F484E895E39A9509
:1072A000F1F700002A9895E39A95F1F700000ED3C4
:1072B0002A9A089581E8F2CF82E8F0CF80E8EECFF5
:1072C00085E38A95F1F700002A9885E38A95F1F71E
:1072D000000080EAFBD280E0FFD22A9A0895209134
:1072E000E4023091E50280915201909153012817F8
:1072F000390709F44DC0E4DF82FD4CC0E091520132
:10730000F0915301828193819C0193E036952795FA
:107310009A95E1F72093D4028295880F807E80931E
:10732000D5021092D6021092D70280818093D802A3
:1073300084818093D90285818093DA02868180934B
:10734000DB0287818093DC0280858093DD0281856A
:107350008093DE0282858093DF0283858093E00242
:1073600064ED72E080E070DF80E091DF8091520197
:10737000909153010C9622E0843D920731F0909356
:1073800053018093520181E0089584E591E0F7CFA5
:107390008DEF08958FEF08951F93CF93DF93182FEC
:1073A000D62FC42F85E38A95F1F700002A9885E34C
:1073B0008A95F1F7000085E089D2812F87D28D2F41
:1073C00085D28C2F83D22A9ADF91CF911F91089575
:1073D000CF93DF93EC0184E591E09093E5028093F5
:1073E000E4029093530180935201CBDE85E38A95AA
:1073F000F1F7000040E063E08FE0CEDF41E064EDB4
:1074000072E08FE0CBDE8091D4021F928F9388E0F0
:1074100091E09F938F9366D20F900F900F900F90F3
:10742000C230D10509F4D5C058F4209709F4C1C081
:10743000219709F4C6C085E08093D40288EFD5C0B7
:10744000C530D10509F4CDC0C630D10511F0239760
:1074500091F785E08093D40288EF8093D50281E094
:107460008093D60283E68093D7021092D8021092BE
:10747000D90246E064ED72E088E2B9DE81E18093F2
:10748000D4021092D5021092D6021092D702109216
:10749000D8021092D9021092DA021092DB0284E82C
:1074A0008093DC021092DD021092DE021092DF0265
:1074B0004CE064ED72E080E09ADE80EB8093D402D1
:1074C0001092D5021092D6021092D7021092D802D2
:1074D0001092D9021092DA021092DB021092DC02B2
:1074E0001092DD021092DE021092DF024CE064ED99
:1074F00072E080E17CDE8CEF8093D4021092D502A2
:107500001092D6021092D7028093D8021092D9021C
:107510001092DA021092DB0248E064ED72E080E241
:1075200066DE41E064ED72E080E638DE8091D402F0
:1075300080668093D40241E064ED72E080E657DE1D
:1075400041E064ED72E080E629DE8091D4021F9272
:107550008F9387E191E09F938F93C4D141E064EDD5
:1075600072E080E71BDE8091D40280668093D402B3
:1075700041E064ED72E080E73ADE41E064ED72E004
:1075800080E70CDE8091D4021F928F9387E291E016
:107590009F938F93A7D18DB79EB708960FB6F89497
:1075A0009EBF0FBE8DBF40E060EE8FE0DF91CF91B8
:1075B000F3CE85E08093D40288EF8093D50289E0F2
:1075C0004FCF85E08093D40288EF8093D50284E08A
:1075D00047CF85E08093D40288EF8093D50283E083
:1075E0003FCF82E08093D40280ED8093D502109249
:1075F000D60238CFCF93DF931F92CDB7DEB741E0ED
:10760000BE016F5F7F4F8CE2C9DD898185FF30C08D
:1076100041E064ED72E08DE2C1DD42E065ED72E0D3
:107620008CE1BCDD40E06091D4028DE2B5DE8FEFED
:107630009FEF9093E7028093E6021092E902109286
:10764000E80289818093EA028091D4028093EB0260
:107650008091D5028093EC028091D6028093ED0256
:1076600040E060E28CE298DE0F90DF91CF910895C8
:1076700080FF4BC04EE064ED72E080E68FDD8091CC
:10768000D40283FD3BC081E090E09093E7028093B9
:10769000E6028091DA028093EA028091DB02809315
:1076A000EB028091DC028093EC028091DD028093FA
:1076B000ED028091DE028093EE028091DF028093E2
:1076C000EF028091E0028093F0028091E1028093CA
:1076D000F1028091D50228E0829FC00111242091FF
:1076E000D6022295269527702093D602822B90935E
:1076F000E9028093E80240E061E0B4CF8CEF9FEFB5
:107700009093E7028093E602E4CF81FF4BC04EE006
:1077100064ED72E080E742DD8091D40283FD3BC0DE
:1077200081E090E09093E7028093E6028091DA0294
:107730008093EA028091DB028093EB028091DC026D
:107740008093EC028091DD028093ED028091DE0255
:107750008093EE028091DF028093EF028091E0023D
:107760008093F0028091E1028093F1028091D50232
:1077700028E0829FC00111242091D60222952695EF
:1077800027702093D602822B9093E9028093E8021F
:1077900040E062E067CF8CEF9FEF9093E702809329
:1077A000E602E4CF86FF11C040E060E48CE2F4DD45
:1077B0008FEF9FEF9093E7028093E60282E090E0E4
:1077C0009093E9028093E8024FCF2FEF3FEF309381
:1077D000E7022093E60221E030E03093E9022093B3
:1077E000E8028093EA0240CFCF93DF9300D0CDB779
:1077F000DEB7982F9F709A8382958F708983FE01E0
:1078000031969E012D5F3F4F93E445E454E466E4D6
:1078100071E4A2E480818C3061F138F48A3061F047
:107820008B3029F1805D808308C08E3031F118F1F2
:107830008F30C1F7608301C070833196E217F30780
:1078400049F78A811F928F9389811F928F9387E3D3
:1078500091E09F938F9346D00F900F900F900F90D1
:107860000F900F900F900F90DF91CF910895A0830C
:10787000E4CF9083E2CF5083E0CF4083DECF84B16A
:107880008F6284B924988DB58E7F8DBD8CB583654C
:107890008CBD8CB51F928F938DE391E09F938F9356
:1078A00021D08CB590E0A0DF87E491E09F938F9387
:1078B00019D08DB590E098DF2A9A299A28980F90D0
:1078C0000F900F900F900F900F9008958EBD0DB4F4
:1078D00007FEFDCF8EB508958EBD0DB407FEFDCF1A
:1078E0008EB50895B0E0A0E0E7E7FCE38DC2AE01FD
:1078F0004B5F5F4FFA0161917191AF018091F4028A
:107900009091F50202D0E2E09BC2ABE0B0E0EAE881
:10791000FCE36AC27C013B018A01FC0117821682EA
:10792000838181FFBAC1CE0101965C01F701938189
:10793000F30193FD859193FF81913F01882309F421
:1079400049C1853239F493FD859193FF81913F01BF
:10795000853221F4B70190E0B9D1E8CF912C212CE8
:10796000312CFFE1F31538F08B3211F190F48032B5
:1079700009F1833229F137FC3CC020ED280F2A3071
:1079800050F536FE20C08AE0989E200D1124922EDC
:1079900006C08D3291F0803371F7689430F8F301AE
:1079A00093FD859193FF81913F018111DACF21C031
:1079B000689431F8689432F8F2CF689433F8EFCFD6
:1079C000689434F8ECCFEAE02E9E200D1124222E8C
:1079D000689435F8E4CF8E3229F436FCFBC0689405
:1079E00036F8DDCF8C3619F4689437F8D8CF88365E
:1079F000B1F2982F9F7D95549330D8F0833691F152
:107A00008337B1F1833509F05EC02801F2E04F0EF3
:107A1000511CF801C080D180692D70E036FC02C095
:107A20006FEF7FEFC6013CD14C01689437F88201BB
:107A30000AC00C5F1F4FFFE3F98388248394912CC5
:107A40006501E89437F833FE2AC0522C8114910462
:107A500059F5552009F46ACFB70180E290E036D19C
:107A60005A94F7CFF801808189830E5F1F4FE5CFCD
:107A70002801F2E04F0E511CF801C080D180692D21
:107A800070E036FC02C06FEF7FEFC60114D14C01ED
:107A90008201D7CFB70180E290E018D12A94281450
:107AA000190409F0B8F7D1CFF60137FC859137FEFC
:107AB00081916F01B70190E009D151105A94F1E022
:107AC0008F1A9108C3CF843619F0893609F073C034
:107AD000F80137FE67C060817181828193810C5FFC
:107AE0001F4FF32DFF763F2E97FF09C0909580958D
:107AF000709561957F4F8F4F9F4F689437F82AE0BC
:107B000030E0A50113D1C82ECA188C2C432C36FEA8
:107B10000CC0E89440F8C91440F434FE05C032FCAF
:107B200003C0F32DFE7E4F2E892C44FE90C0FE0133
:107B3000EC0DF11D8081803309F082C0242D297E57
:107B4000422E842D8870582E43FC8FC040FE89C081
:107B50009C2C821418F42C0C922C981844FE8BC088
:107B6000B70180E390E0B2D042FE08C088E790E021
:107B700041FE02C088E590E0B701A8D0C91408F41E
:107B800086C0CA94D12C9FEFC91AD90ACA0CDB1C33
:107B9000F60182916F01B70190E098D0AC14BD045A
:107BA000B9F757CF60817181072E000C880B990BB4
:107BB0000E5F1F4F96CFD32CE894D4F82AE030E024
:107BC000853731F1232D297FD22E8F36F9F040F4FD
:107BD0008835A1F0F701868197812B96E2E120C1DB
:107BE000803749F08837B1F7D4FE02C06894D2F8E4
:107BF00020E130E00DC06894D4F8F6CF34FE03C025
:107C0000822F8660D82E20E132E002C028E030E0EA
:107C1000F801D7FE0EC060817181828193810C5F73
:107C20001F4FA50183D0C82ECA183D2CE89437F801
:107C30006CCF6081718190E080E00E5F1F4FF1CFCB
:107C400042FC02C083947DCF839483947ACF842DA9
:107C5000867809F476CFF6CFB70180E290E036D08F
:107C600083948214C8F3512C79CF522C5818821463
:107C700008F474CFF8CF842D867809F47FCF8BE297
:107C800041FE80E247FC8DE2B70190E076CFB7017C
:107C900080E390E01BD09A9471CF8FEF9FEF9DCF40
:107CA000FC010590615070400110D8F780959095C7
:107CB0008E0F9F1F0895FC016150704001900110CC
:107CC000D8F7809590958E0F9F1F08950F931F935F
:107CD000CF93DF93182F092FEB018B8181FD09C012
:107CE0001FEF0FEF812F902FDF91CF911F910F91F9
:107CF000089582FF14C02E813F818C819D812817B9
:107D000039073CF4E881F981CF0101969983888392
:107D100010838E819F8101969F838E83E3CFE885B8
:107D2000F985812F0995892BA1F3DACFFA01AA27CA
:107D3000283051F1203181F1E8946F936E7F6E5FAE
:107D40007F4F8F4F9F4FAF4FB1E03ED0B4E03CD05C
:107D5000670F781F891F9A1FA11D680F791F8A1F3F
:107D6000911DA11D6A0F711D811D911DA11D20D0A6
:107D700009F468943F912AE0269F11243019305D60
:107D80003193DEF6CF010895462F4770405D419351
:107D9000B3E00FD0C9F7F6CF462F4F70405D4A339E
:107DA00018F0495D31FD4052419302D0A9F7EACF66
:107DB000B4E0A6959795879577956795BA95C9F795
:107DC00000976105710508959B01AC010A2E069488
:107DD0005795479537952795BA95C9F7620F731F41
:107DE000841F951FA01D08952F923F924F925F927E
:107DF0006F927F928F929F92AF92BF92CF92DF92BB
:107E0000EF92FF920F931F93CF93DF93CDB7DEB71F
:107E1000CA1BDB0B0FB6F894DEBF0FBECDBF0994B3
:107E20002A88398848885F846E847D848C849B840A
:107E3000AA84B984C884DF80EE80FD800C811B8118
:107E4000AA81B981CE0FD11D0FB6F894DEBF0FBE47
:0A7E5000CDBFED010895F894FFCFB7
:107E5A00010203040506070843414E4354524C20CD
:107E6A003D202564200A00525842304354524C2087
:107E7A003D202564200A00525842314354524C2076
:107E8A003D202564200A00256325632000535043C2
:107E9A0052203D202564000A2053504353203D20A0
:027EAA000000D6
:040000030000700089
:00000001FF
