:1070000033C000004CC000004AC0000048C000006F
:1070100046C0000044C0000042C0000040C0000064
:107020003EC000003CC000003AC0000038C0000074
:1070300036C0000034C0000032C0000030C0000084
:107040002EC000002CC000002AC0000028C0000094
:1070500026C0000024C0000022C0000020C00000A4
:107060001EC000001CC0000011241FBECFEFD8E0DE
:10707000DEBFCDBF11E0A0E0B1E0ECE7FEE702C06B
:1070800005900D92A430B107D9F723E0A4E0B1E058
:1070900001C01D92AE32B207E1F769D0EDC6B0CFA4
:1070A000D901E0912003F09121037383628350E0C2
:1070B000518340838C91848311968C9111978583A1
:1070C00012968C911297868313968C9113978783CF
:1070D00014968C911497808715968C9115978187BB
:1070E00016968C911697828717968C9183875AD122
:1070F00018C2CF93DF93EC01299A41E0BC018CE2E6
:107100006FD18881837029F070D381E0DF91CF91B6
:1071100008958FEFFBCFCF92DF92EF92FF92CF9344
:10712000DF93EC0190E080E0AFD56B017C01BE0104
:1071300090E080E0A9D59B01AC01C701B60110D554
:1071400020E030E048EC52E42DD672D5662339F0C9
:10715000693129F0623319F08FEF6B3409F4862F0F
:10716000DF91CF91FF90EF90DF90CF900895CF9374
:10717000DF93CDB7DEB728970FB6F894DEBF0FBE0A
:10718000CDBF8E010F5F1F4F88E0F80111928A95E5
:10719000E9F7B1D485E090E03DD244E6942EC801F1
:1071A000A8DF8130E1F7C0908B01D0908C018091F5
:1071B0002403909125030197E1F441E067E071E039
:1071C00085E60ED1E0908901F0908A01E0910701F7
:1071D000E1500E2E000CFF0B21E030E040E050E0CB
:1071E000E7FF77C0F0928A01E092890181E0809305
:1071F00088018091240390912503029781F6809164
:107200008801813061F6D694DC2CCC24D794C794C5
:10721000F12CE12C80918D018038C9F420E830E018
:1072200048E051E0C701B601DAD340E850E06FEF23
:1072300070E088E091E019D680918B0190918C01EB
:10724000019690938C0180938B0110928D01A090F8
:107250008901B0908A018091010190910201B0E012
:10726000A0E023E0880F991FAA1FBB1F2A95D1F722
:10727000A50170E060E084179507A607B70708F43A
:1072800042C041E067E071E085E6AAD09091070135
:10729000A6E2B3E0E0918D01F0E0E85FFE4F80E010
:1072A00098132DC020E830E048E051E0C701B60156
:1072B00096D39092060126E031E041E060E071E073
:1072C00080E090E0EDDE1CBC1DBC14B80C94000006
:1072D00066CFDF01AE5DBC4F14968C9190E0829F2B
:1072E000B001839F700D929F700D1124E60EF71E62
:1072F000AAE0B0E01CD49B01AC01319771CF2D9175
:1073000021938F5FCDCF6091040170910501E090D2
:107310000001F12C6B01F8E0CF0ED11C3B018FEF87
:10732000681A780AC501F7DE8F3F91F1282F082EE1
:10733000000C330B2E153F0559F170920501609238
:107340000401809300018093060126E031E041E0D2
:1073500060E071E080E090E0A3DE80918D01A6E224
:10736000B3E0E82FF0E0E85FFE4F9D91919393E04A
:10737000AE32B907D1F7885F80938D01809101010A
:10738000909102010196909302018093010107CF31
:10739000B3016C147D0409F0C1CF709205016092B5
:1073A0000401DBCF80912003909121030C9623E010
:1073B0008031920729F09093210380932003089550
:1073C00080E991E0F8CF85E38A95F1F700002A98EB
:1073D00085E38A95F1F7000080EC9DD32A9A089501
:1073E000FF920F931F93CF93DF93C82FF62E172F83
:1073F000042F85E38A95F1F700002A9885E38A95A2
:10740000F1F7000083E087D38C2F85D3CF2DD12FC8
:107410000C0F1D2F111DC017D10739F42A9ADF91C7
:10742000CF911F910F91FF90089580E07AD38993B7
:10743000F2CFEF92FF920F931F93CF93DF93C82F5A
:10744000162FE72E042F85E38A95F1F700002A987E
:1074500085E38A95F1F7000082E05DD38C2F5BD342
:10746000F12EC12FDE2D0150110B9C2F9F198991F8
:10747000901711064CF04FD32A9ADF91CF911F91AC
:107480000F91FF90EF90089546D3EFCF0F931F9386
:10749000CF93DF93C82F8B0187702A9880643BD3EA
:1074A000C0FD0EC0E801035F1F4F899134D3C017A0
:1074B000D107D9F72A9ADF91CF911F910F910895A3
:1074C000E801085F1F4F899126D3C017D107D9F76C
:1074D000F1CF882389F0813089F0823089F484E803
:1074E00095E39A95F1F700002A9895E39A95F1F7BC
:1074F000000011D32A9A089581E8F2CF82E8F0CFF4
:1075000080E8EECF85E38A95F1F700002A9885E3BD
:107510008A95F1F7000080EAFED280E002D32A9A31
:107520000895209120033091210380918E01909144
:107530008F012817390709F44DC0E4DF82FD4CC0E4
:10754000E0918E01F0918F01828193819C0193E003
:10755000369527959A95E1F7209310038295880F29
:10756000807E809311031092120310921303808186
:10757000809314038481809315038581809316037F
:107580008681809317038781809318038085809379
:107590001903818580931A03828580931B03838559
:1075A00080931C0360E173E080E070DF80E091DF96
:1075B00080918E0190918F010C9623E0803192078B
:1075C00031F090938F0180938E0181E0089580E9DE
:1075D00091E0F7CF8DEF08958FEF08951F93CF932C
:1075E000DF93182FD62FC42F85E38A95F1F700007B
:1075F0002A9885E38A95F1F7000085E08CD2812FE7
:107600008AD28D2F88D28C2F86D22A9ADF91CF9161
:107610001F910895CF93DF93EC0180E991E090935F
:1076200021038093200390938F0180938E01CBDE02
:1076300085E38A95F1F7000040E063E08FE0CEDF5C
:1076400041E060E173E08FE0CBDEC230D10509F4A8
:10765000BBC058F4209709F4A7C0219709F4ACC027
:1076600085E08093100388EFBBC0C530D10509F4D5
:10767000B3C0C630D10511F0239791F785E0809310
:10768000100388EF8093110381E08093120383E657
:1076900080931303109214031092150346E060E1E7
:1076A00073E088E2C6DE81E180931003109211033B
:1076B00010921203109213031092140310921503E8
:1076C000109216031092170384E880931803109207
:1076D000190310921A0310921B034CE060E173E04F
:1076E00080E0A7DE80EB80931003109211031092CC
:1076F00012031092130310921403109215031092A8
:107700001603109217031092180310921903109287
:107710001A0310921B034CE060E173E080E189DE04
:107720008CEF8093100310921103109212031092A9
:1077300013038093140310921503109216031092F2
:10774000170348E060E173E080E273DE41E060E14E
:1077500073E080E645DE809110038066809310031D
:1077600041E060E173E080E664DE41E060E173E007
:1077700080E636DE41E060E173E080E731DE809153
:10778000100380668093100341E060E173E080E7BE
:1077900050DE41E060E173E080E722DE40E060EE31
:1077A0008FE0DF91CF911ACF85E08093100388EFAF
:1077B0008093110389E069CF85E08093100388EFFF
:1077C0008093110384E061CF85E08093100388EFFC
:1077D0008093110383E059CF82E08093100380ED02
:1077E000809311031092120352CFCF93DF931F9215
:1077F000CDB7DEB741E0BE016F5F7F4F8CE2F0DDB9
:10780000898185FF30C041E060E173E08DE2E8DD11
:1078100042E061E173E08CE1E3DD40E06091100360
:107820008DE2DCDE8FEF9FEF9093230380932203A2
:10783000109225031092240389818093260380915E
:107840001003809327038091110380932803809174
:1078500012038093290340E060E28CE2BFDE0F90C8
:10786000DF91CF91089580FF4BC04EE060E173E05F
:1078700080E6B6DD8091100383FD3BC081E090E09F
:107880009093230380932203809116038093260311
:107890008091170380932703809118038093280316
:1078A000809119038093290380911A0380932A03FE
:1078B00080911B0380932B0380911C0380932C03E6
:1078C00080911D0380932D038091110328E0829FF6
:1078D000C001112420911203229526952770209330
:1078E0001203822B909325038093240340E061E0F0
:1078F000B4CF8CEF9FEF9093230380932203E4CFC8
:1079000081FF4BC04EE060E173E080E769DD80916C
:10791000100383FD3BC081E090E0909323038093AC
:10792000220380911603809326038091170380938E
:107930002703809118038093280380911903809373
:10794000290380911A0380932A0380911B0380935B
:107950002B0380911C0380932C0380911D03809343
:107960002D038091110328E0829FC00111242091F2
:10797000120322952695277020931203822B909351
:1079800025038093240340E062E067CF8CEF9FEFF4
:107990009093230380932203E4CF86FF11C040E03D
:1079A00060E48CE21BDE8FEF9FEF909323038093C4
:1079B000220382E090E090932503809324034FCF2D
:1079C0002FEF3FEF309323032093220321E030E099
:1079D00030932503209324038093260340CF2F92D6
:1079E0003F925F926F927F928F929F92AF92BF92DF
:1079F000CF92DF92EF92FF920F931F93CF93DF937B
:107A0000F901EF77FF27A1E0EF2B09F4A0E0F901DE
:107A1000EE0FEF2FEE1FFF0BF195EA0F6FB6F89404
:107A2000F999FECF2E2E312C810101501109F80158
:107A3000F695FE2FEE27F795E7955901AE1ABF0A86
:107A400030E020E0B3E07B2E88248394C5E09C2EB8
:107A500022153305B8F081E180935700E8956FBE99
:107A6000DF91CF911F910F91FF90EF90DF90CF901A
:107A7000BF90AF909F908F907F906F905F903F905E
:107A80002F90089575012017310719F090E8E92E1D
:107A9000F12CFB0170925700E89507B600FCFDCF72
:107AA000EA01DA016B01C41AD50AAD01FD01EC1B34
:107AB000FD0BEE15FF0560F0FB0190925700E89575
:107AC00007B600FCFDCF2F5F3F4F60587F4FC0CF00
:107AD0005C90F601EA0FFB1F11964C91119750E054
:107AE000542F4427450D511D0A0180925700E895F7
:107AF00011241296DACF84B18F6284B924988DB59F
:107B00008E7F8DBD8CB583658CBD8CB58DB52A9A65
:107B1000299A289808958EBD0DB407FEFDCF8EB525
:107B200008958EBD0DB407FEFDCF8EB5089509D022
:107B3000A59F900DB49F900DA49F800D911D1124C1
:107B40000895A29FB001B39FC001A39F700D811D36
:107B50001124911DB29F700D811D1124911D089556
:107B60000CD0E6C0DED040F0D5D030F021F45F3F3D
:107B700019F0C7C0511110C1CAC0EBD098F39923B6
:107B8000C9F35523B1F3951B550BBB27AA276217E1
:107B90007307840738F09F5F5F4F220F331F441F26
:107BA000AA1FA9F333D00E2E3AF0E0E830D091505E
:107BB0005040E695001CCAF729D0FE2F27D0660F4B
:107BC000771F881FBB1F261737074807AB07B0E88A
:107BD00009F0BB0B802DBF01FF2793585F4F2AF0A0
:107BE0009E3F510568F08DC0D7C05F3FECF3983ED3
:107BF000DCF3869577956795B795F7959F5FC9F7FD
:107C0000880F911D9695879597F90895E1E0660F85
:107C1000771F881FBB1F621773078407BA0720F0FE
:107C2000621B730B840BBA0BEE1F88F7E095089567
:107C300098D088F09F5790F0B92F9927B751A0F0AE
:107C4000D1F0660F771F881F991F1AF0BA95C9F7F0
:107C500012C0B13081F09FD0B1E008959CC0672F71
:107C6000782F8827B85F39F0B93FCCF386957795A0
:107C70006795B395D9F73EF4909580957095619589
:107C80007F4F8F4F9F4F0895E89409C097FB3EF4B4
:107C900090958095709561957F4F8F4F9F4F992359
:107CA000A9F0F92F96E9BB279395F69587957795D7
:107CB0006795B795F111F8CFFAF4BB0F11F460FF97
:107CC0001BC06F5F7F4F8F4F9F4F16C0882311F0EF
:107CD00096E911C0772321F09EE8872F762F05C003
:107CE000662371F096E8862F70E060E02AF09A959E
:107CF000660F771F881FDAF7880F9695879597F993
:107D0000089597F99F6780E870E060E008959FEF1D
:107D100080EC089500240A94161617061806090622
:107D2000089500240A9412161306140605060895F1
:107D3000092E0394000C11F4882352F0BB0F40F479
:107D4000BF2B11F460FF04C06F5F7F4F8F4F9F4FB9
:107D5000089557FD9058440F551F59F05F3F71F03B
:107D60004795880F97FB991F61F09F3F79F08795A2
:107D70000895121613061406551FF2CF4695F1DF2B
:107D800008C0161617061806991FF1CF86957105BB
:107D9000610508940895E894BB2766277727CB01EF
:107DA00097F908950BD0C4CFB5DF28F0BADF18F0EB
:107DB000952309F0A6CFABCF1124EECFCADFA0F3F5
:107DC000959FD1F3950F50E0551F629FF001729F70
:107DD000BB27F00DB11D639FAA27F00DB11DAA1F8F
:107DE000649F6627B00DA11D661F829F2227B00DDC
:107DF000A11D621F739FB00DA11D621F839FA00D67
:107E0000611D221F749F3327A00D611D231F849FB6
:107E1000600D211D822F762F6A2F11249F5750400D
:107E20008AF0E1F088234AF0EE0FFF1FBB1F661FA8
:107E3000771F881F91505040A9F79E3F510570F061
:107E400060CFAACF5F3FECF3983EDCF38695779541
:107E50006795B795F795E7959F5FC1F7FE2B880F5C
:107E6000911D9695879597F90895DC0101C06D9352
:0C7E700041505040E0F70895F894FFCF17
:047E7C00FF01000002
:040000030000700089
:00000001FF
