:100000000C9434000C9451000C9451000C94510049
:100010000C9451000C9451000C9451000C9451001C
:100020000C9451000C9451000C9451000C9451000C
:100030000C9451000C9451000C9451000C945100FC
:100040000C9451000C9451000C9451000C945100EC
:100050000C9451000C9451000C9451000C945100DC
:100060000C9451000C94510011241FBECFEFD8E026
:10007000DEBFCDBF11E0A0E0B1E0EEECF2E102C0E6
:1000800005900D92A837B107D9F723E0A8E7B1E0B2
:1000900001C01D92AE31B207E1F70E943F060C94F9
:1000A00065090C940000D901E0910A03F0910B035B
:1000B0007383628350E0518340838C9184831196D3
:1000C0008C911197858312968C9112978683139643
:1000D0008C911397878314968C911497808715962B
:1000E0008C911597818716968C9116978287179613
:1000F0008C9183870E9492000C94AE01CF93DF9382
:10010000EC01299A41E0BC018CE20E94B100888197
:10011000837031F00E94620381E0DF91CF910895F6
:100120008FEFFBCF80910A0390910B030C9622E096
:100130008A3F920729F090930B0380930A03089556
:100140008AE791E0F8CF85E38A95F1F700002A98D5
:1001500085E38A95F1F7000080EC0E94C1042A9A99
:100160000895FF920F931F93CF93DF93C82FF62E1E
:10017000172F042F85E38A95F1F700002A9885E36D
:100180008A95F1F7000083E00E94C1048C2F0E9441
:10019000C104CF2DD12F0C0F1D2F111DC017D1075A
:1001A00039F42A9ADF91CF911F910F91FF90089512
:1001B00080E00E94C7048993F1CF0F931F93CF93E0
:1001C000DF938B01C82FCC0F8C2F867095E39A9507
:1001D000F1F700002A9895E39A95F1F700008069FD
:1001E0000E94C104C1FD10C0E801035F1F4F80E001
:1001F0000E94C7048993C017D107C9F72A9ADF91D3
:10020000CF911F910F910895E801085F1F4F80E083
:100210000E94C7048993C017D107C9F7EFCFEF92A7
:10022000FF920F931F93CF93DF93C82F162FE72EC4
:10023000042F85E38A95F1F700002A9885E38A95D3
:10024000F1F7000082E00E94C1048C2F0E94C104DB
:10025000F12EC12FDE2D0150110B9C2F9F1989917A
:100260009017110654F00E94C1042A9ADF91CF9191
:100270001F910F91FF90EF9008950E94C104EDCF60
:10028000CF93DF9300D01F92CDB7DEB7440F440F5A
:10029000440F642B6A838B8342E0BE016F5F7F4F04
:1002A00089E20E940F0185E38A95F1F700000F9023
:1002B0000F900F90DF91CF9108950F931F93CF93DD
:1002C000DF93C82F8B0187702A9880640E94C10435
:1002D000C0FD0FC0E801035F1F4F89910E94C10458
:1002E000C017D107D1F72A9ADF91CF911F910F91B3
:1002F0000895E801085F1F4F89910E94C104C0174B
:10030000D107D1F7F0CF882391F0813091F082307E
:1003100091F484E895E39A95F1F700002A9895E323
:100320009A95F1F700000E94C1042A9A089581E885
:10033000F1CF82E8EFCF80E8EDCF85E38A95F1F742
:1003400000002A9885E38A95F1F7000080EA0E9470
:10035000C10480E00E94C7042A9A089520910A03EC
:1003600030910B038091780190917901281739071A
:1003700009F450C00E949D0182FD4EC0E0917801B9
:10038000F0917901828193819C0193E036952795C4
:100390009A95E1F72093FA028295880F807E8093E8
:1003A000FB021092FC021092FD0280818093FE02FB
:1003B00084818093FF0285818093000386818093EE
:1003C00001038781809302038085809303038185E5
:1003D00080930403828580930503838580930603BD
:1003E0006AEF72E080E00E945D0180E00E9483017C
:1003F00080917801909179010C9622E08A3F9207D2
:1004000031F0909379018093780181E008958AE733
:1004100091E0F7CF8DEF08958FEF089585E38A95EA
:10042000F1F700002A9885E38A95F1F7000080EB48
:100430000E94C10480E00E94C7042A9A08951F9375
:10044000CF93DF93182FD62FC42F85E38A95F1F72A
:1004500000002A9885E38A95F1F7000085E00E9464
:10046000C104812F0E94C1048D2F0E94C1048C2FD2
:100470000E94C1042A9ADF91CF911F910895CF93D2
:10048000DF93EC018AE791E090930B0380930A03DA
:1004900090937901809378010E94A30085E38A9567
:1004A000F1F7000040E063E08FE00E941F0241E0AE
:1004B0006AEF72E08FE00E94B1008091FA021F9211
:1004C0008F9388E091E09F938F930E9468060F902E
:1004D0000F900F900F90C230D10509F4E2C058F48C
:1004E000209709F4CEC0219709F4D3C085E080930A
:1004F000FA0288EFE2C0C530D10509F4DAC0C6308F
:10050000D10511F0239791F785E08093FA0288EFE7
:100510008093FB0281E08093FC0283E68093FD02DE
:100520001092FE021092FF0246E06AEF72E088E24B
:100530000E940F0181E18093FA021092FB02109257
:10054000FC021092FD021092FE021092FF02109225
:1005500000031092010384E88093020310920303C6
:1005600010920403109205034CE06AEF72E080E001
:100570000E940F0180EB8093FA021092FB0210920E
:10058000FC021092FD021092FE021092FF021092E5
:1005900000031092010310920203109203031092C1
:1005A0000403109205034CE06AEF72E080E10E94C0
:1005B0000F018CEF8093FA021092FB021092FC0262
:1005C0001092FD028093FE021092FF02109200032F
:1005D0001092010348E06AEF72E080E20E940F018E
:1005E00041E06AEF72E080E60E94B1008091FA0279
:1005F00080668093FA0241E06AEF72E080E60E9432
:100600000F0141E06AEF72E080E60E94B100809144
:10061000FA021F928F9387E191E09F938F930E943C
:10062000680641E06AEF72E080E70E94B1008091C5
:10063000FA0280668093FA0241E06AEF72E080E796
:100640000E940F0141E06AEF72E080E70E94B10072
:100650008091FA021F928F9387E291E09F938F938C
:100660000E9468068DB79EB708960FB6F8949EBF95
:100670000FBE8DBF40E060EE8FE0DF91CF910C9414
:100680001F0285E08093FA0288EF8093FB0289E0E5
:1006900042CF85E08093FA0288EF8093FB0284E0EA
:1006A0003ACF85E08093FA0288EF8093FB0283E0E3
:1006B00032CF82E08093FA0280ED8093FB021092A9
:1006C000FC022BCFCF93DF931F92CDB7DEB741E073
:1006D000BE016F5F7F4F8CE20E94B100898185FF70
:1006E00034C041E06AEF72E08DE20E94B10042E066
:1006F0006BEF72E08CE10E94B10040E06091FA0281
:100700008DE20E941F028FEF9FEF90930D03809365
:100710000C0310920F0310920E0389818093100333
:100720008091FA02809311038091FB02809312035F
:100730008091FC028093130340E060E28CE20E940F
:100740001F020F90DF91CF91089580FF4CC04EE0C3
:100750006AEF72E080E60E94B1008091FA0283FDA8
:100760003BC081E090E090930D0380930C03809157
:100770000003809310038091010380931103809103
:1007800002038093120380910303809313038091EB
:1007900004038093140380910503809315038091D3
:1007A00006038093160380910703809317038091BB
:1007B000FB0228E0829FC00111242091FC022295B7
:1007C000269527702093FC02822B90930F03809331
:1007D0000E0340E061E0B2CF8CEF9FEF90930D03EA
:1007E00080930C03E4CF81FF4CC04EE06AEF72E0CF
:1007F00080E70E94B1008091FA0283FD3BC081E056
:1008000090E090930D0380930C03809100038093FC
:100810001003809101038093110380910203809360
:100820001203809103038093130380910403809348
:100830001403809105038093150380910603809330
:10084000160380910703809317038091FB0228E031
:10085000829FC00111242091FC02229526952770C9
:100860002093FC02822B90930F0380930E0340E0B1
:1008700062E064CF8CEF9FEF90930D0380930C03A5
:10088000E4CF86FF12C040E060E48CE20E941F02C9
:100890008FEF9FEF90930D0380930C0382E090E025
:1008A00090930F0380930E034CCF2FEF3FEF3093C5
:1008B0000D0320930C0321E030E030930F032093CD
:1008C0000E03809310033DCF40E068E080E30E9478
:1008D0001F0240E068E080E40E941F0240E068E000
:1008E00080E50C941F02CF93DF931F92CDB7DEB744
:1008F00040E260EE8FE00E941F028981807E80329C
:1009000021F40F90DF91CF91089541E0BE016F5F18
:100910007F4F8EE00E94B100F0CF40E060EE8FE0AC
:100920000C941F0284B18F6284B924988DB58E7F98
:100930008DBD8CB583658CBD8CB51F928F9387E37D
:1009400091E09F938F930E9468068CB5082E000C4F
:10095000990B0E94A70581E491E09F938F930E94D9
:1009600068068DB5082E000C990B0E94A7052A9ADF
:10097000299A28980F900F900F900F900F900F903A
:1009800008958EBD0DB407FEFDCF8EB508958EBDC2
:100990000DB407FEFDCF8EB5089580E184B980E4E3
:1009A0008CBD08950DB407FEFDCF8EB508959093CC
:1009B000C5008093C40088E18093C1008EE08093DD
:1009C000C20008959091C00095FFFCCF8093C600AF
:1009D00008958091C00087FFFCCF8091C6000895E4
:1009E0008091C000881F8827881F0895CF93DF93C8
:1009F000EC018991811103C0DF91CF9108950E948C
:100A0000E204F7CFCF93C82F8A3019F48DE00E940B
:100A1000E2048C2F0E94E20490E080E0CF910895E0
:100A2000EF92FF920F931F93CF937C017F936F936D
:100A30000E9468060F900F9010E000E00E94E90409
:100A4000C82F8823D9F38D3059F090E00E947E069C
:100A50000F5F1F4FF701C083C70101967C01EECFE6
:100A60008AE090E00E947E06C801CF911F910F910D
:100A7000FF90EF9008950F931F93CF93DF93162F5E
:100A8000072FEA019F938F930E9468068BE491E001
:100A90009F938F930E9468060F931F930E9468068E
:100AA00089E591E09F938F930E946806DF93CF932F
:100AB0000E94680685E291E00E9485068DB79EB788
:100AC0000A960FB6F8949EBF0FBE8DBF0E94E90430
:100AD0008F7D893549F08E34C9F790E080E0DF9151
:100AE000CF911F910F91089581E090E0F8CF85E6B6
:100AF00091E00E9485060E94E904803379F08133F9
:100B000081F0823389F0833391F0843399F0853317
:100B1000A1F0863381F786E090E0089590E080E0D0
:100B2000089581E090E0089582E090E0089583E0E8
:100B300090E0089584E090E0089585E090E00895C5
:100B40008091C00087FF08958091C600F9CFCF93B0
:100B5000DF9300D0CDB7DEB7982F9F709A83829530
:100B60008F708983FE0131969E012D5F3F4F93E484
:100B700045E454E466E471E4A2E480818C3069F1D8
:100B800038F48A3061F08B3031F1805D808308C0A9
:100B90008E3039F120F18F30C1F7608301C070834E
:100BA0003196E217F30749F78A811F928F93898163
:100BB0001F928F9381E791E09F938F930E94680625
:100BC0000F900F900F900F900F900F900F900F902D
:100BD000DF91CF910895A083E3CF9083E1CF50833D
:100BE000DFCF4083DDCFCF93DF9300D0CDB7DEB72B
:100BF000982F9F70998382958F708A83FE0131961A
:100C00009E012D5F3F4F93E445E454E466E471E4B4
:100C1000A2E480818C3069F138F48A3061F08B3045
:100C200031F1805D808308C08E3039F120F18F3042
:100C3000C1F7608301C070833196E217F30749F76B
:100C40008A811F928F9389811F928F9381E791E010
:100C50009F938F930E9468060F900F900F900F90B4
:100C60000F900F900F900F90DF91CF910895A08378
:100C7000E3CF9083E1CF5083DFCF4083DDCFCF93AD
:100C8000DF93CDB7DEB728970FB6F894DEBF0FBE5F
:100C9000CDBF88E0E0E0F1E0DE01119601900D9219
:100CA0008A95E1F70E94920485E090E00E943F025D
:100CB000CE0101960E947E008130D1F720E133E021
:100CC00048E063E271E080E090E00E945300F0CFE2
:100CD000B0E0A0E0EEE6F6E00C943E09AE014B5F1A
:100CE0005F4FFA0161917191AF0180911A03909168
:100CF0001B030E94B006E2E00C945A0960911A03AB
:100D000070911B030E94A00808950F931F93CF9327
:100D1000DF93E0911A03F0911B032381EC0110E0B3
:100D200000E021FD08C00FEF1FEF14C00995892BCB
:100D300011F00FEF1FEF899160911A0370911B035F
:100D4000DB011896ED91FC918111F0CF8AE00995B5
:100D5000892B49F7C801DF91CF911F910F91089519
:100D6000ABE0B0E0E6EBF6E00C942E097C013B0131
:100D70008A01FC0117821682838181FFC8C1CE01DE
:100D800001965C01F7019381F30193FD859193FF37
:100D900081913F01882309F453C1853239F493FDD1
:100DA000859193FF81913F01853229F4B70190E04D
:100DB0000E94A008E7CF912C212C312CFFE1F315E4
:100DC00038F08B3211F190F4803209F1833229F13D
:100DD00037FC3CC020ED280F2A3050F536FE20C0ED
:100DE0008AE0989E200D1124922E06C08D3291F03B
:100DF000803371F7689430F8F30193FD859193FF88
:100E000081913F018111DACF21C0689431F8689453
:100E100032F8F2CF689433F8EFCF689434F8ECCF1F
:100E2000EAE02E9E200D1124222E689435F8E4CF9E
:100E30008E3229F436FC04C1689436F8DDCF8C3646
:100E400019F4689437F8D8CF8836B1F2982F9F7D7F
:100E500095549330E0F08336A1F18337C1F18335A7
:100E600009F063C02801F2E04F0E511CF801C08068
:100E7000D180692D70E036FC02C06FEF7FEFC601B4
:100E80000E948A084C01689437F882010AC00C5FFE
:100E90001F4FFFE3F98388248394912C6501E89424
:100EA00037F833FE2DC0522C8114910471F5552072
:100EB00009F468CFB70180E290E00E94A0085A943C
:100EC000F6CFF801808189830E5F1F4FE4CF2801A0
:100ED000F2E04F0E511CF801C080D180692D70E006
:100EE00036FC02C06FEF7FEFC6010E9495084C01EF
:100EF0008201D5CFB70180E290E00E94A0082A9439
:100F00002814190409F0B0F7CECFF60137FC85910B
:100F100037FE81916F01B70190E00E94A008511047
:100F20005A94F1E08F1A9108BFCF843619F08936B0
:100F300009F077C0F80137FE6BC060817181828152
:100F400093810C5F1F4FF32DFF763F2E97FF09C053
:100F500090958095709561957F4F8F4F9F4F6894C6
:100F600037F82AE030E0A5010E94D008C82ECA1840
:100F70008C2C432C36FE0CC0E89440F8C91440F485
:100F800034FE05C032FC03C0F32DFE7E4F2E892CAB
:100F900044FE95C0FE01EC0DF11D8081803309F007
:100FA00087C0242D297E422E842D8870582E43FC24
:100FB00095C040FE8FC09C2C821418F42C0C922CEF
:100FC000981844FE91C0B70180E390E00E94A00809
:100FD00042FE09C088E790E041FE02C088E590E04B
:100FE000B7010E94A008C91408F48AC0CA94D12C81
:100FF0009FEFC91AD90ACA0CDB1CF60182916F0156
:10100000B70190E00E94A008AC14BD04B1F74FCF27
:1010100060817181072E000C880B990B0E5F1F4FAA
:1010200092CFD32CE894D4F82AE030E0853739F118
:10103000232D297FD22E8F3601F148F48835A9F06F
:10104000F701868197812B96E2E10C944A0980375B
:1010500049F08837A9F7D4FE02C06894D2F820E19D
:1010600030E00DC06894D4F8F6CF34FE03C0822F70
:101070008660D82E20E132E002C028E030E0F8019E
:10108000D7FE0FC060817181828193810C5F1F4FF9
:10109000A5010E94D008C82ECA183D2CE89437F844
:1010A00067CF6081718190E080E00E5F1F4FF0CFCD
:1010B00042FC02C0839478CF8394839475CF842DAF
:1010C000867809F471CFF6CFB70180E290E00E94F4
:1010D000A00883948214C0F3512C73CF522C58185B
:1010E000821408F46ECFF8CF842D867809F47BCF74
:1010F0008BE241FE80E247FC8DE2B70190E071CFC8
:10110000B70180E390E00E94A0089A946CCF8FEF23
:101110009FEF99CFFC010590615070400110D8F706
:10112000809590958E0F9F1F0895FC01615070402F
:1011300001900110D8F7809590958E0F9F1F08950C
:101140000F931F93CF93DF93182F092FEB018B8100
:1011500081FD09C01FEF0FEF812F902FDF91CF91FD
:101160001F910F91089582FF14C02E813F818C81C1
:101170009D81281739073CF4E881F981CF01019658
:101180009983888310838E819F8101969F838E83AC
:10119000E3CFE885F985812F0995892BA1F3DACF73
:1011A000FA01AA27283051F1203181F1E8946F9398
:1011B0006E7F6E5F7F4F8F4F9F4FAF4FB1E03ED03E
:1011C000B4E03CD0670F781F891F9A1FA11D680FDC
:1011D000791F8A1F911DA11D6A0F711D811D911D0F
:1011E000A11D20D009F468943F912AE0269F112484
:1011F0003019305D3193DEF6CF010895462F4770E8
:10120000405D4193B3E00FD0C9F7F6CF462F4F7042
:10121000405D4A3318F0495D31FD4052419302D0A0
:10122000A9F7EACFB4E0A695979587957795679546
:10123000BA95C9F700976105710508959B01AC0146
:101240000A2E06945795479537952795BA95C9F76D
:10125000620F731F841F951FA01D08952F923F9248
:101260004F925F926F927F928F929F92AF92BF92B6
:10127000CF92DF92EF92FF920F931F93CF93DF9362
:10128000CDB7DEB7CA1BDB0B0FB6F894DEBF0FBEBF
:10129000CDBF09942A88398848885F846E847D840C
:1012A0008C849B84AA84B984C884DF80EE80FD800E
:1012B0000C811B81AA81B981CE0FD11D0FB6F89484
:0E12C000DEBF0FBECDBFED010895F894FFCF45
:1012CE00010203040506070843414E4354524C20C5
:1012DE003D202564200A00525842304354524C207F
:1012EE003D202564200A00525842314354524C206E
:1012FE003D202564200A0053504352203D20256492
:10130E00000A2053504353203D20000A507265734B
:10131E0073205920666F72200020616E64204E206B
:10132E00666F722000656E7465722063686172204C
:08133E00002563256320000077
:00000001FF
