:107C00000C94343E0C94513E0C94513E0C94513ED5
:107C10000C94513E0C94513E0C94513E0C94513EA8
:107C20000C94513E0C94513E0C94513E0C94513E98
:107C30000C94513E0C94513E0C94513E0C94513E88
:107C40000C94513E0C94513E0C94513E0C94513E78
:107C50000C94513E0C94513E0C94513E0C94513E68
:107C60000C94513E0C94513E11241FBECFEFD8E02E
:107C7000DEBFCDBF11E0A0E0B1E0E0ECFFE702C065
:107C800005900D92A831B107D9F725E0A8E1B1E040
:107C900001C01D92AF33B207E1F70E94053F0C947B
:107CA000DE3F0C94003E1092C50087E68093C4002E
:107CB00086E08093C20088E18093C100089580919E
:107CC000C00087FFFCCF8091C60008959091C0004E
:107CD00095FFFCCF8093C6000895CF93DF93EC010E
:107CE0008991811103C0DF91CF9108950E94663E72
:107CF000F7CF2F923F925F926F927F928F929F92D7
:107D0000AF92BF92CF92DF92EF92FF920F931F93A9
:107D1000CF93DF93F901EF77FF27A1E0EF2B09F471
:107D2000A0E0F901EE0FEF2FEE1FFF0BF195EA0F28
:107D30006FB6F894F999FECF2E2E312C81010150A7
:107D40001109F801F695FE2FEE27F795E7955901F1
:107D5000AE1ABF0A30E020E0B3E07B2E8824839483
:107D6000C5E09C2E22153305B8F081E180935700C1
:107D7000E8956FBEDF91CF911F910F91FF90EF902B
:107D8000DF90CF90BF90AF909F908F907F906F903B
:107D90005F903F902F90089575012017310719F0DB
:107DA00090E8E92EF12CFB0170925700E89507B698
:107DB00000FCFDCFEA01DA016B01C41AD50AAD015E
:107DC000FD01EC1BFD0BEE15FF0560F0FB01909231
:107DD0005700E89507B600FCFDCF2F5F3F4F605876
:107DE0007F4FC0CF5C90F601EA0FFB1F11964C91BC
:107DF000119750E0542F4427450D511D0A018092E0
:107E00005700E89511241296DACF0E94533EC8E33A
:107E1000D5E01FEF01E0E0903B05F0903C0580913C
:107E20003805811149C00E945F3EF701E85EFE4FB0
:107E3000808380913B0590913C05FC01E85EFE4FFC
:107E400020812A3099F5EFEFE80FE0903905F090A6
:107E50003A0521E030E040E050E0AE2FB0E0A85E0F
:107E6000BE4F8C918D3399F08053990B829FB00156
:107E7000839F700D929F700D1124E60EF71EAAE0ED
:107E8000B0E00E94C43F9B01AC01E150E6CFF0920C
:107E90003A05E09239058CE091E00E946D3E009336
:107EA000380510923C0510923B05B5CF0196909392
:107EB0003C0580933B05AFCFE11484E0F80609F060
:107EC00053C080E091E00E946D3E60913D0570E0FE
:107ED000762F6627770F770F072E000C880B990BEC
:107EE00020E034E048E351E00E94793EE8E3F1E02D
:107EF0001193CE17DF07E1F780913D058F5F8093E7
:107F00003D0510923C0510923B0580913D0590E0A7
:107F1000982F8827990F990F20913B0530913C05A8
:107F2000820F931F2091390530913A0582179307EC
:107F300009F071CF80E091E00E946D3E20913B05F9
:107F400030913C0560913D0570E0762F6627770FF4
:107F5000770F072E000C880B990B48E351E00E9425
:107F6000793E0C94000057CF0E945F3EF701E85C19
:107F7000FE4F808380913B0590913C050196909344
:107F80003C0580933B05C1CF0E94CF3FA59F900D3C
:107F9000B49F900DA49F800D911D11240895A29F60
:107FA000B001B39FC001A39F700D811D1124911DCD
:107FB000B29F700D811D1124911D0895F894FFCF7B
:107FC00052656164204F4B20210D0A004F4B204D1C
:087FD000454E20210D0A0000BE
:0400000300007C007D
:00000001FF
