:107C00000C94343E0C943E3E0C943E3E0C943E3E0E
:107C10000C943E3E0C943E3E0C943E3E0C943E3EF4
:107C20000C943E3E0C943E3E0C943E3E0C943E3EE4
:107C30000C943E3E0C943E3E0C943E3E0C943E3ED4
:107C40000C943E3E0C943E3E0C943E3E0C943E3EC4
:107C50000C943E3E0C943E3E0C943E3E0C943E3EB4
:107C60000C943E3E0C943E3E11241FBECFEFD8E054
:107C7000DEBFCDBF0E94533E0C94713E0C94003E7B
:107C80001092C50087E68093C40086E08093C2000E
:107C900088E18093C10008959091C00095FFFCCFCA
:107CA0008093C60008950E94403E81E40E944C3EAD
:107CB00082E50E944C3E8EE40E944C3E81E40E948C
:107CC0004C3E82E40E944C3E8AE00E944C3E2FEFE4
:107CD00083ED90E3215080409040E1F700C0000028
:067CE000E4CFF894FFCF91
:0400000300007C007D
:00000001FF
